{
  "contractName": "ProductRegistry",
  "abi": [
    {
      "anonymous": false,
      "inputs": [
        {
          "indexed": true,
          "internalType": "uint256",
          "name": "productId",
          "type": "uint256"
        }
      ],
      "name": "ProductRegistered",
      "type": "event"
    },
    {
      "anonymous": false,
      "inputs": [
        {
          "indexed": true,
          "internalType": "uint256",
          "name": "productId",
          "type": "uint256"
        },
        {
          "indexed": false,
          "internalType": "string",
          "name": "newStatus",
          "type": "string"
        },
        {
          "indexed": false,
          "internalType": "string",
          "name": "warehouseName",
          "type": "string"
        },
        {
          "indexed": false,
          "internalType": "string",
          "name": "warehouseAddress",
          "type": "string"
        },
        {
          "indexed": false,
          "internalType": "uint256",
          "name": "timestamp",
          "type": "uint256"
        }
      ],
      "name": "ProductStatusUpdated",
      "type": "event"
    },
    {
      "inputs": [
        {
          "internalType": "uint256",
          "name": "",
          "type": "uint256"
        }
      ],
      "name": "products",
      "outputs": [
        {
          "internalType": "uint256",
          "name": "id",
          "type": "uint256"
        },
        {
          "internalType": "string",
          "name": "name",
          "type": "string"
        },
        {
          "internalType": "string",
          "name": "description",
          "type": "string"
        },
        {
          "internalType": "uint256",
          "name": "manufacturingDate",
          "type": "uint256"
        },
        {
          "internalType": "string",
          "name": "manufacturerName",
          "type": "string"
        },
        {
          "internalType": "string",
          "name": "manufacturerAddress",
          "type": "string"
        },
        {
          "internalType": "string",
          "name": "status",
          "type": "string"
        },
        {
          "internalType": "string",
          "name": "warehouseName",
          "type": "string"
        },
        {
          "internalType": "string",
          "name": "warehouseAddress",
          "type": "string"
        },
        {
          "internalType": "uint256",
          "name": "timestamp",
          "type": "uint256"
        }
      ],
      "stateMutability": "view",
      "type": "function",
      "constant": true
    },
    {
      "inputs": [
        {
          "internalType": "string",
          "name": "_name",
          "type": "string"
        },
        {
          "internalType": "string",
          "name": "_description",
          "type": "string"
        },
        {
          "internalType": "uint256",
          "name": "_manufacturingDate",
          "type": "uint256"
        },
        {
          "internalType": "string",
          "name": "_manufacturerName",
          "type": "string"
        },
        {
          "internalType": "string",
          "name": "_manufacturerAddress",
          "type": "string"
        }
      ],
      "name": "registerProduct",
      "outputs": [],
      "stateMutability": "nonpayable",
      "type": "function"
    },
    {
      "inputs": [
        {
          "internalType": "uint256",
          "name": "_productId",
          "type": "uint256"
        },
        {
          "internalType": "string",
          "name": "_status",
          "type": "string"
        },
        {
          "internalType": "string",
          "name": "_warehouseName",
          "type": "string"
        },
        {
          "internalType": "string",
          "name": "_warehouseAddress",
          "type": "string"
        },
        {
          "internalType": "uint256",
          "name": "_timestamp",
          "type": "uint256"
        }
      ],
      "name": "updateProductStatus",
      "outputs": [],
      "stateMutability": "nonpayable",
      "type": "function"
    },
    {
      "inputs": [
        {
          "internalType": "uint256",
          "name": "_productId",
          "type": "uint256"
        }
      ],
      "name": "getProductDetails",
      "outputs": [
        {
          "internalType": "uint256",
          "name": "id",
          "type": "uint256"
        },
        {
          "internalType": "string",
          "name": "name",
          "type": "string"
        },
        {
          "internalType": "string",
          "name": "description",
          "type": "string"
        },
        {
          "internalType": "uint256",
          "name": "manufacturingDate",
          "type": "uint256"
        },
        {
          "internalType": "string",
          "name": "manufacturerName",
          "type": "string"
        },
        {
          "internalType": "string",
          "name": "manufacturerAddress",
          "type": "string"
        },
        {
          "internalType": "string",
          "name": "status",
          "type": "string"
        },
        {
          "internalType": "string",
          "name": "warehouseName",
          "type": "string"
        },
        {
          "internalType": "string",
          "name": "warehouseAddress",
          "type": "string"
        },
        {
          "internalType": "uint256",
          "name": "timestamp",
          "type": "uint256"
        }
      ],
      "stateMutability": "view",
      "type": "function",
      "constant": true
    }
  ],
  "bytecode": "0x608060405234801561001057600080fd5b506115d0806100206000396000f3fe608060405234801561001057600080fd5b506004361061004c5760003560e01c80635201afd414610051578063634bccbd1461006d5780636813b53b146100895780637acc0b20146100c2575b600080fd5b61006b60048036038101906100669190610e77565b6100fb565b005b61008760048036038101906100829190610f77565b6102e6565b005b6100a3600480360381019061009e9190610f4e565b610518565b6040516100b99a999897969594939291906112b4565b60405180910390f35b6100dc60048036038101906100d79190610f4e565b61094b565b6040516100f29a999897969594939291906112b4565b60405180910390f35b60008081548092919061010d9061149c565b919050555060405180610140016040528060005481526020018681526020018581526020018481526020018381526020018281526020016040518060400160405280601781526020017f4d616e75666163747572696e6720436f6d706c657465640000000000000000008152508152602001604051806020016040528060008152508152602001604051806020016040528060008152508152602001600081525060016000805481526020019081526020016000206000820151816000015560208201518160010190805190602001906101e8929190610d57565b506040820151816002019080519060200190610205929190610d57565b5060608201518160030155608082015181600401908051906020019061022c929190610d57565b5060a0820151816005019080519060200190610249929190610d57565b5060c0820151816006019080519060200190610266929190610d57565b5060e0820151816007019080519060200190610283929190610d57565b506101008201518160080190805190602001906102a1929190610d57565b5061012082015181600901559050506000547fbcc0e36116309da282dcf13bde248ef63930f4114b68999c8570a86ffb3ab30560405160405180910390a25050505050565b600084511161032a576040517f08c379a000000000000000000000000000000000000000000000000000000000815260040161032190611274565b60405180910390fd5b600060016000878152602001908152602001600020600601805461034d9061146a565b90501161038f576040517f08c379a000000000000000000000000000000000000000000000000000000000815260040161038690611254565b60405180910390fd5b6040518060400160405280601781526020017f4d616e75666163747572696e6720436f6d706c6574656400000000000000000081525080519060200120600160008781526020019081526020016000206006016040516103ef91906111e3565b604051809103902014610437576040517f08c379a000000000000000000000000000000000000000000000000000000000815260040161042e90611294565b60405180910390fd5b83600160008781526020019081526020016000206006019080519060200190610461929190610d57565b508260016000878152602001908152602001600020600701908051906020019061048c929190610d57565b50816001600087815260200190815260200160002060080190805190602001906104b7929190610d57565b50806001600087815260200190815260200160002060090181905550847fc5c73ebb5a2cd15ce14d8bf5e39e89e4f705dc430c8a818fce121a98a5520a828585858560405161050994939291906111fa565b60405180910390a25050505050565b600060608060006060806060806060600080600160008d8152602001908152602001600020905080600001549a508060010180546105559061146a565b80601f01602080910402602001604051908101604052809291908181526020018280546105819061146a565b80156105ce5780601f106105a3576101008083540402835291602001916105ce565b820191906000526020600020905b8154815290600101906020018083116105b157829003601f168201915b505050505099508060020180546105e49061146a565b80601f01602080910402602001604051908101604052809291908181526020018280546106109061146a565b801561065d5780601f106106325761010080835404028352916020019161065d565b820191906000526020600020905b81548152906001019060200180831161064057829003601f168201915b505050505098508060030154975080600401805461067a9061146a565b80601f01602080910402602001604051908101604052809291908181526020018280546106a69061146a565b80156106f35780601f106106c8576101008083540402835291602001916106f3565b820191906000526020600020905b8154815290600101906020018083116106d657829003601f168201915b505050505096508060050180546107099061146a565b80601f01602080910402602001604051908101604052809291908181526020018280546107359061146a565b80156107825780601f1061075757610100808354040283529160200191610782565b820191906000526020600020905b81548152906001019060200180831161076557829003601f168201915b505050505095508060060180546107989061146a565b80601f01602080910402602001604051908101604052809291908181526020018280546107c49061146a565b80156108115780601f106107e657610100808354040283529160200191610811565b820191906000526020600020905b8154815290600101906020018083116107f457829003601f168201915b505050505094508060070180546108279061146a565b80601f01602080910402602001604051908101604052809291908181526020018280546108539061146a565b80156108a05780601f10610875576101008083540402835291602001916108a0565b820191906000526020600020905b81548152906001019060200180831161088357829003601f168201915b505050505093508060080180546108b69061146a565b80601f01602080910402602001604051908101604052809291908181526020018280546108e29061146a565b801561092f5780601f106109045761010080835404028352916020019161092f565b820191906000526020600020905b81548152906001019060200180831161091257829003601f168201915b5050505050925080600901549150509193959799509193959799565b60016020528060005260406000206000915090508060000154908060010180546109749061146a565b80601f01602080910402602001604051908101604052809291908181526020018280546109a09061146a565b80156109ed5780601f106109c2576101008083540402835291602001916109ed565b820191906000526020600020905b8154815290600101906020018083116109d057829003601f168201915b505050505090806002018054610a029061146a565b80601f0160208091040260200160405190810160405280929190818152602001828054610a2e9061146a565b8015610a7b5780601f10610a5057610100808354040283529160200191610a7b565b820191906000526020600020905b815481529060010190602001808311610a5e57829003601f168201915b505050505090806003015490806004018054610a969061146a565b80601f0160208091040260200160405190810160405280929190818152602001828054610ac29061146a565b8015610b0f5780601f10610ae457610100808354040283529160200191610b0f565b820191906000526020600020905b815481529060010190602001808311610af257829003601f168201915b505050505090806005018054610b249061146a565b80601f0160208091040260200160405190810160405280929190818152602001828054610b509061146a565b8015610b9d5780601f10610b7257610100808354040283529160200191610b9d565b820191906000526020600020905b815481529060010190602001808311610b8057829003601f168201915b505050505090806006018054610bb29061146a565b80601f0160208091040260200160405190810160405280929190818152602001828054610bde9061146a565b8015610c2b5780601f10610c0057610100808354040283529160200191610c2b565b820191906000526020600020905b815481529060010190602001808311610c0e57829003601f168201915b505050505090806007018054610c409061146a565b80601f0160208091040260200160405190810160405280929190818152602001828054610c6c9061146a565b8015610cb95780601f10610c8e57610100808354040283529160200191610cb9565b820191906000526020600020905b815481529060010190602001808311610c9c57829003601f168201915b505050505090806008018054610cce9061146a565b80601f0160208091040260200160405190810160405280929190818152602001828054610cfa9061146a565b8015610d475780601f10610d1c57610100808354040283529160200191610d47565b820191906000526020600020905b815481529060010190602001808311610d2a57829003601f168201915b505050505090806009015490508a565b828054610d639061146a565b90600052602060002090601f016020900481019282610d855760008555610dcc565b82601f10610d9e57805160ff1916838001178555610dcc565b82800160010185558215610dcc579182015b82811115610dcb578251825591602001919060010190610db0565b5b509050610dd99190610ddd565b5090565b5b80821115610df6576000816000905550600101610dde565b5090565b6000610e0d610e08846113b2565b611381565b905082815260208101848484011115610e2557600080fd5b610e30848285611428565b509392505050565b600082601f830112610e4957600080fd5b8135610e59848260208601610dfa565b91505092915050565b600081359050610e7181611583565b92915050565b600080600080600060a08688031215610e8f57600080fd5b600086013567ffffffffffffffff811115610ea957600080fd5b610eb588828901610e38565b955050602086013567ffffffffffffffff811115610ed257600080fd5b610ede88828901610e38565b9450506040610eef88828901610e62565b935050606086013567ffffffffffffffff811115610f0c57600080fd5b610f1888828901610e38565b925050608086013567ffffffffffffffff811115610f3557600080fd5b610f4188828901610e38565b9150509295509295909350565b600060208284031215610f6057600080fd5b6000610f6e84828501610e62565b91505092915050565b600080600080600060a08688031215610f8f57600080fd5b6000610f9d88828901610e62565b955050602086013567ffffffffffffffff811115610fba57600080fd5b610fc688828901610e38565b945050604086013567ffffffffffffffff811115610fe357600080fd5b610fef88828901610e38565b935050606086013567ffffffffffffffff81111561100c57600080fd5b61101888828901610e38565b925050608061102988828901610e62565b9150509295509295909350565b600081546110438161146a565b61104d8186611402565b945060018216600081146110685760018114611079576110ac565b60ff198316865281860193506110ac565b611082856113e2565b60005b838110156110a457815481890152600182019150602081019050611085565b838801955050505b50505092915050565b60006110c0826113f7565b6110ca818561140d565b93506110da818560208601611437565b6110e381611572565b840191505092915050565b60006110fb60168361140d565b91507f50726f6475637420646f6573206e6f74206578697374000000000000000000006000830152602082019050919050565b600061113b60168361140d565b91507f5374617475732063616e6e6f7420626520656d707479000000000000000000006000830152602082019050919050565b600061117b60328361140d565b91507f50726f64756374206973206e6f7420696e20274d616e75666163747572696e6760008301527f20436f6d706c65746564272073746174757300000000000000000000000000006020830152604082019050919050565b6111dd8161141e565b82525050565b60006111ef8284611036565b915081905092915050565b6000608082019050818103600083015261121481876110b5565b9050818103602083015261122881866110b5565b9050818103604083015261123c81856110b5565b905061124b60608301846111d4565b95945050505050565b6000602082019050818103600083015261126d816110ee565b9050919050565b6000602082019050818103600083015261128d8161112e565b9050919050565b600060208201905081810360008301526112ad8161116e565b9050919050565b6000610140820190506112ca600083018d6111d4565b81810360208301526112dc818c6110b5565b905081810360408301526112f0818b6110b5565b90506112ff606083018a6111d4565b818103608083015261131181896110b5565b905081810360a083015261132581886110b5565b905081810360c083015261133981876110b5565b905081810360e083015261134d81866110b5565b905081810361010083015261136281856110b5565b90506113726101208301846111d4565b9b9a5050505050505050505050565b6000604051905081810181811067ffffffffffffffff821117156113a8576113a7611543565b5b8060405250919050565b600067ffffffffffffffff8211156113cd576113cc611543565b5b601f19601f8301169050602081019050919050565b60008190508160005260206000209050919050565b600081519050919050565b600081905092915050565b600082825260208201905092915050565b6000819050919050565b82818337600083830152505050565b60005b8381101561145557808201518184015260208101905061143a565b83811115611464576000848401525b50505050565b6000600282049050600182168061148257607f821691505b6020821081141561149657611495611514565b5b50919050565b60006114a78261141e565b91507fffffffffffffffffffffffffffffffffffffffffffffffffffffffffffffffff8214156114da576114d96114e5565b5b600182019050919050565b7f4e487b7100000000000000000000000000000000000000000000000000000000600052601160045260246000fd5b7f4e487b7100000000000000000000000000000000000000000000000000000000600052602260045260246000fd5b7f4e487b7100000000000000000000000000000000000000000000000000000000600052604160045260246000fd5b6000601f19601f8301169050919050565b61158c8161141e565b811461159757600080fd5b5056fea26469706673582212204f11b403ee2c3355033a9000aa47b1fb2b5de7851e0e3f12320364350bb9c97f64736f6c63430008000033",
  "immutableReferences": {},
  "source": "// SPDX-License-Identifier: MIT\npragma solidity ^0.8.0;\n\ncontract ProductRegistry {\n    // Struct to represent a product\n    struct Product {\n        uint256 id;                  // Unique identifier for the product\n        string name;                 // Name of the product\n        string description;          // Description of the product\n        uint256 manufacturingDate;   // Manufacturing date (timestamp)\n        string manufacturerName;     // Name of the manufacturer\n        string manufacturerAddress;  // Address of the manufacturer\n        string status;               // Current status of the product\n        string warehouseName;        // Name of the warehouse (if in transit)\n        string warehouseAddress;     // Address of the warehouse (if in transit)\n        uint256 timestamp;           // Timestamp of the status update\n    }\n\n    uint256 private productIdCounter; // Counter to generate unique product IDs\n    mapping(uint256 => Product) public products; // Mapping to store product information\n\n    event ProductRegistered(uint256 indexed productId);\n    event ProductStatusUpdated(uint256 indexed productId, string newStatus, string warehouseName, string warehouseAddress, uint256 timestamp);\n\n    // Function to register a new product\n    function registerProduct(\n        string memory _name,\n        string memory _description,\n        uint256 _manufacturingDate,\n        string memory _manufacturerName,\n        string memory _manufacturerAddress\n    ) public {\n        productIdCounter++;\n\n        // Create a new product with default values\n        products[productIdCounter] = Product({\n            id: productIdCounter,\n            name: _name,\n            description: _description,\n            manufacturingDate: _manufacturingDate,\n            manufacturerName: _manufacturerName,\n            manufacturerAddress: _manufacturerAddress,\n            status: \"Manufacturing Completed\",\n            warehouseName: \"\",\n            warehouseAddress: \"\",\n            timestamp: 0\n        });\n\n        // Emit an event to indicate the product registration\n        emit ProductRegistered(productIdCounter);\n    }\n\n    // Function to update the status of a product\n    function updateProductStatus(\n        uint256 _productId,\n        string memory _status,\n        string memory _warehouseName,\n        string memory _warehouseAddress,\n        uint256 _timestamp\n    ) public {\n        // Check if the status is not empty and the product exists\n        require(bytes(_status).length > 0, \"Status cannot be empty\");\n        require(bytes(products[_productId].status).length > 0, \"Product does not exist\");\n        require(keccak256(bytes(products[_productId].status)) == keccak256(bytes(\"Manufacturing Completed\")), \"Product is not in 'Manufacturing Completed' status\");\n\n        // Update product status and warehouse information\n        products[_productId].status = _status;\n        products[_productId].warehouseName = _warehouseName;\n        products[_productId].warehouseAddress = _warehouseAddress;\n        products[_productId].timestamp = _timestamp;\n\n        // Emit an event to indicate the product status update\n        emit ProductStatusUpdated(_productId, _status, _warehouseName, _warehouseAddress, _timestamp);\n    }\n\n    // Function to retrieve all details of a product\n    function getProductDetails(uint256 _productId) public view returns (\n        uint256 id,\n        string memory name,\n        string memory description,\n        uint256 manufacturingDate,\n        string memory manufacturerName,\n        string memory manufacturerAddress,\n        string memory status,\n        string memory warehouseName,\n        string memory warehouseAddress,\n        uint256 timestamp\n    ) {\n        Product storage product = products[_productId];\n\n        // Retrieve product details\n        id = product.id;\n        name = product.name;\n        description = product.description;\n        manufacturingDate = product.manufacturingDate;\n        manufacturerName = product.manufacturerName;\n        manufacturerAddress = product.manufacturerAddress;\n        status = product.status;\n        warehouseName = product.warehouseName;\n        warehouseAddress = product.warehouseAddress;\n        timestamp = product.timestamp;\n    }\n}\n",
  "sourcePath": "/home/siddhant/Manan/contracts/Product.sol",
  "compiler": {
    "name": "solc",
    "version": "0.8.0+commit.c7dfd78e.Emscripten.clang"
  },
  "schemaVersion": "3.4.16",
  "updatedAt": "2023-09-27T19:43:40.038Z",
  "networkType": "ethereum",
  "devdoc": {
    "kind": "dev",
    "methods": {},
    "version": 1
  },
  "userdoc": {
    "kind": "user",
    "methods": {},
    "version": 1
  }
}